:100000000C945D000C9485000C9485000C94850084
:100010000C9485000C9485000C9485000C9485004C
:100020000C9485000C9485000C9485000C9485003C
:100030000C9485000C9485000C9485000C9485002C
:100040000C94B4030C9485000C9482030C945C0310
:100050000C9485000C9485000C9485000C9485000C
:100060000C9485000C9485000000000024002700FB
:100070002A0000000000250028002B0004040404CE
:100080000404040402020202020203030303030342
:10009000010204081020408001020408102001021F
:1000A00004081020000000080002010000030407FB
:1000B0000000000000000000730611241FBECFEFF7
:1000C000D8E0DEBFCDBF11E0A0E0B1E0E4EEF3E1A7
:1000D00002C005900D92A632B107D9F721E0A6E241
:1000E000B1E001C01D92A03FB207E1F710E0CDE5FD
:1000F000D0E004C02197FE010E94EA09CC35D10767
:10010000C9F70E94FE030C94F0090C940000EEEA7B
:10011000F0E02491EAE9F0E09491E6E8F0E0E4917F
:10012000EE23C9F0222339F0233001F1A8F4213065
:1001300019F1223029F1F0E0EE0FFF1FEE58FF4FCA
:10014000A591B4912FB7F894EC91811126C09095A8
:100150009E239C932FBF08952730A9F02830C9F023
:10016000243049F7209180002F7D03C0209180002A
:100170002F7720938000DFCF24B52F7724BDDBCFEE
:1001800024B52F7DFBCF2091B0002F772093B000B6
:10019000D2CF2091B0002F7DF9CF9E2BDACFEAE9A4
:1001A000F0E02491E6E8F0E08491882399F090E073
:1001B000880F991FFC01E859FF4FA591B491FC01EC
:1001C000EE58FF4F859194918FB7F894EC91E22B04
:1001D000EC938FBF0895AF92BF92CF92DF92EF92D0
:1001E000FF920F931F93CF93DF936C017B018B01E1
:1001F000040F151FEB015E01AE18BF08C017D10731
:1002000059F06991D601ED91FC910190F081E02DBA
:10021000C6010995892B79F7C501DF91CF911F910F
:100220000F91FF90EF90DF90CF90BF90AF90089527
:10023000FC01538D448D252F30E0842F90E0821BEC
:10024000930B541710F0CF96089501970895FC0171
:10025000918D828D981761F0A28DAE0FBF2FB11DC9
:100260005D968C91928D9F5F9F73928F90E0089521
:100270008FEF9FEF0895FC01918D828D981731F0DB
:10028000828DE80FF11D858D90E008958FEF9FEF2F
:100290000895FC01918D228D892F90E0805C9F4F05
:1002A000821B91098F739927089583E591E00E943D
:1002B000490121E0892B09F420E0822F089580E094
:1002C00090E0892B29F00E94550181110C940000C7
:1002D0000895FC01A48DA80FB92FB11DA35ABF4FDB
:1002E0002C91848D90E001968F739927848FA68935
:1002F000B7892C93A089B1898C91837080648C9389
:10030000938D848D981306C00288F389E02D808137
:100310008F7D80830895EF92FF920F931F93CF9369
:10032000DF93EC0181E0888F9B8D8C8D98131AC030
:10033000E889F989808185FF15C09FB7F894EE8917
:10034000FF896083E889F989808183708064808374
:100350009FBF81E090E0DF91CF911F910F91FF90BF
:10036000EF900895F62E0B8D10E00F5F1F4F0F7367
:100370001127E02E8C8D8E110CC00FB607FCFACF22
:10038000E889F989808185FFF5CFCE010E94690156
:10039000F1CFEB8DEC0FFD2FF11DE35AFF4FF082F3
:1003A0009FB7F8940B8FEA89FB8980818062CFCF59
:1003B000CF93DF93EC01888D8823B9F0AA89BB899C
:1003C000E889F9898C9185FD03C0808186FD0DC087
:1003D0000FB607FCF7CF8C9185FFF2CF808185FFA8
:1003E000EDCFCE010E946901E9CFDF91CF91089551
:1003F0008E50806480937C0080917A00806480932A
:100400007A0080917A0086FDFCCF809178009091EF
:10041000790008953FB7F89480912B0190912C01B9
:10042000A0912D01B0912E0126B5A89B05C02F3FAC
:1004300019F00196A11DB11D3FBFBA2FA92F982F0A
:100440008827BC01CD01620F711D811D911D42E005
:10045000660F771F881F991F4A95D1F70895FC01F1
:1004600001900020E9F73197AF01481B590BBC01FF
:1004700083E591E00C94EB008F929F92AF92BF9234
:100480000F931F93CF93DF93CDB7DEB7A1970FB62E
:10049000F894DEBF0FBECDBF19A2423008F44AE087
:1004A0008E010F5D1F4F842E912CB12CA12CA50124
:1004B00094010E947607E62FB901CA01EA30F4F4EC
:1004C000E05DD801EE938D01232B242B252B79F7AA
:1004D00090E080E0109719F0CD010E942F02A196C4
:1004E0000FB6F894DEBF0FBECDBFDF91CF911F9145
:1004F0000F91BF90AF909F908F900895E95CE1CFEE
:100500004F925F926F927F928F929F92AF92BF9223
:10051000CF92DF92EF92FF920F931F93CF936B01D5
:100520007C01742EAC019B010E94E509882399F09F
:1005300086E191E0CF911F910F91FF90EF90DF90B6
:10054000CF90BF90AF909F908F907F906F905F9073
:100550004F900C942F0246015701E894B7F82FEF03
:100560003FEF4FE75FE7C501B4010E94E509811144
:100570000DC02FEF3FEF4FE75FE7C501B4010E94C9
:10058000140818161CF48AE191E0D4CF2FEF3FEF46
:100590004FE75FE4C701B6010E94730918161CF407
:1005A0008EE191E0C7CF2FEF3FEF4FE75FECC70140
:1005B000B6010E94140887FDF3CF20E030E0A901C6
:1005C000C701B6010E94140810E000E087FF0AC0CE
:1005D0006DE283E591E00E948B018C01F7FAF094C3
:1005E000F7F8F094C0E060E070E080E09FE37C16F4
:1005F00041F020E030E040E251E40E941908CF5F72
:10060000F6CFA70196010E94A8072B013C010E948A
:1006100092084B015C014AE00E943C027C01E00E22
:10062000F11ECC23C1F1C501B4010E94C1089B0198
:10063000AC01C301B2010E94A7074B015C016EE24D
:1006400083E591E00E948B01E80EF91EC15018F17C
:1006500020E030E040E251E4C501B4010E94780995
:100660002B013C010E9492084B01B12CA12C4AE0C5
:10067000C501B4010E943C02E80EF91EC501B40197
:100680000E94C1089B01AC01C301B2010E94A707EF
:100690004B015C01DBCFC701CF911F910F91FF9000
:1006A000EF90DF90CF90BF90AF909F908F907F9012
:1006B0006F905F904F9008951F920F920FB60F9218
:1006C00011242F933F934F935F936F937F938F9357
:1006D0009F93AF93BF93EF93FF9383E591E00E94C5
:1006E0006901FF91EF91BF91AF919F918F917F91A0
:1006F0006F915F914F913F912F910F900FBE0F908F
:100700001F9018951F920F920FB60F9211242F93DE
:100710008F939F93EF93FF93E0916301F0916401B6
:100720008081E0916901F0916A0182FD1BC0908196
:1007300080916C018F5F8F7320916D01821741F062
:10074000E0916C01F0E0ED5AFE4F958F80936C01C3
:10075000FF91EF919F918F912F910F900FBE0F906E
:100760001F9018958081F4CF1F920F920FB60F92B1
:1007700011242F933F938F939F93AF93BF938091B7
:10078000270190912801A0912901B0912A0130916F
:10079000260123E0230F2D3758F50196A11DB11D29
:1007A000209326018093270190932801A09329018B
:1007B000B0932A0180912B0190912C01A0912D01E1
:1007C000B0912E010196A11DB11D80932B01909334
:1007D0002C01A0932D01B0932E01BF91AF919F9159
:1007E0008F913F912F910F900FBE0F901F901895F2
:1007F00026E8230F0296A11DB11DD2CF789484B5AF
:10080000826084BD84B5816084BD85B5826085BD0C
:1008100085B5816085BD80916E00816080936E009A
:10082000109281008091810082608093810080918C
:10083000810081608093810080918000816080933D
:1008400080008091B10084608093B1008091B000FD
:1008500081608093B00080917A00846080937A00F8
:1008600080917A00826080937A0080917A00816022
:1008700080937A0080917A00806880937A00109249
:10088000C10080917A00846080937A0080917A0020
:10089000826080937A0080917A008E7F80937A00C4
:1008A000E0916301F091640182E08083E0915F0157
:1008B000F09160011082E0916101F091620187E0A6
:1008C000808310926B01E0916701F091680186E0EE
:1008D0008083E0916501F091660180818061808371
:1008E000E0916501F0916601808188608083E091EC
:1008F0006501F0916601808180688083E0916501E7
:10090000F091660180818F7D80830E94CF000E94DC
:10091000CF0080E00E9487008FE00E94F801BC01B8
:10092000990F880B990B611571058105910511F0DF
:100930000E943B070EEA10E0C0E0D0E0412C512CB1
:1009400080E8682E8FE3782E0E940A02C0904F0143
:10095000D0905001E0905101F09052016C197D0946
:100960008E099F09613A7F408105910508F0B0C169
:100970000E940A0280EAC80E8FE0D81EE11CF11C1A
:10098000C0924F01D0925001E0925101F092520179
:1009900083E591E00E944901892BD1F083E591E044
:1009A0000E942701833749F440924B0150924C0139
:1009B00060924D0170924E01EBCF823749F7109251
:1009C0004B0110924C0110924D0110924E01E0CF5C
:1009D0000E94EC0625E630E040E050E00E9444072B
:1009E00062537109810991090E94C30820E030E037
:1009F0004AEF54E40E9419084B015C0180924701C0
:100A000090924801A0924901B0924A018EE00E9462
:100A1000F801BC01990F880B990B0E94C30820E0D4
:100A200030E040EA50E40E94780920E030EC4FE7E3
:100A300054E40E9419089B01AC01209343013093B8
:100A40004401409345015093460160914B017091E0
:100A50004C0180914D0190914E010E94A7076B01BE
:100A60007C01C0923701D0923801E0923901F092B6
:100A70003A01209133013091340140913501509178
:100A80003601C501B4010E94A8074B015C012FED9E
:100A90003FE44DE85EE3C701B6010E9478099B017F
:100AA000AC01C501B4010E94A8076B017C012CE5D3
:100AB0003FE842E05FEB60913B0170913C01809127
:100AC0003D0190913E010E9478099B01AC01C70154
:100AD000B6010E94A8076B017C0120E030E040E8ED
:100AE0005EE360913F0170914001809141019091DE
:100AF00042010E9478099B01AC01C701B6010E9426
:100B0000A8076B017C0120E030E0A9010E941408D5
:100B100087FD8DC0C0922F01D0923001E09231014B
:100B2000F092320120E030E040EA50E460912F0181
:100B30007091300180913101909132010E947309CE
:100B4000181664F480E090E0A0EAB0E480932F01EE
:100B500090933001A0933101B093320120E030E056
:100B60004FE753E460912F01709130018091310182
:100B7000909132010E94780920E030E040EA50E490
:100B80000E9419080E948B086B015B010E94CF0034
:100B9000C114D10409F054C080E00E948700809104
:100BA0003B0190913C01A0913D01B0913E018093A9
:100BB0003F0190934001A0934101B0934201809185
:100BC000370190913801A0913901B0913A01809399
:100BD0003B0190933C01A0933D01B0933E01609195
:100BE0002F01709130018091310190913201609319
:100BF000330170933401809335019093360144E0C2
:100C00000E9480026CE283E591E00E948B0160917A
:100C1000430170914401809145019091460144E067
:100C20000E94800282E291E00E942F028DCE1092FB
:100C30002F0110923001109231011092320172CFC7
:100C4000EFEFCE16D10411F481E0A7CFF801849123
:100C5000833021F148F48130B9F08230D1F0F0E8EE
:100C6000AF16B1048CF798CF873011F1883041F17D
:100C70008430A9F780918000806280938000D092B8
:100C80008B00C0928A008BCF84B5806884BDC7BCBE
:100C900086CF84B5806284BDC8BC81CF809180003E
:100CA000806880938000D0928900C092880077CFBE
:100CB0008091B00080688093B000C092B3006FCF85
:100CC0008091B00080628093B000C092B40067CF82
:100CD000209709F439CE0E945501882309F434CEB7
:100CE0000E94000031CEE3E5F1E01382128288EE2B
:100CF00093E0A0E0B0E084839583A683B78388E087
:100D000091E09183808385EC90E09587848784ECE3
:100D100090E09787868780EC90E0918B808B81ECC8
:100D200090E0938B828B82EC90E0958B848B86ECA9
:100D300090E0978B868B118E128E138E148E0895F1
:100D40008F929F92AF92BF92CF92DF92EF92FF92DB
:100D5000CF93DF93EC01688179818A819B81611552
:100D600071058105910521F464E279ED8BE597E049
:100D70002DE133EF41E050E00E94440749015A0160
:100D80009B01AC01A7EAB1E40E9463076B017C01FF
:100D9000ACEEB4EFA50194010E947107C60ED71EF8
:100DA000E81EF91EF7FE06C081E0C81AD108E10866
:100DB00080E8F80AC882D982EA82FB82C701B601BC
:100DC0009F77DF91CF91FF90EF90DF90CF90BF9012
:100DD000AF909F908F9008958F929F92AF92BF9205
:100DE000CF92DF92EF92FF9260910001709101012A
:100DF00080910201909103016115710581059105B2
:100E000021F464E279ED8BE597E02DE133EF41E0E9
:100E100050E00E94440749015A019B01AC01A7EA36
:100E2000B1E40E9463076B017C01ACEEB4EFA50155
:100E300094010E947107C60ED71EE81EF91EF7FE28
:100E400006C081E0C81AD108E10880E8F80AC0921B
:100E50000001D0920101E0920201F0920301C7016A
:100E6000B6019F77FF90EF90DF90CF90BF90AF904B
:100E70009F908F900895609300017093010180937B
:100E80000201909303010895052E97FB1EF4009430
:100E90000E945B0757FD07D00E94760707FC03D02E
:100EA0004EF40C945B0750954095309521953F4F3B
:100EB0004F4F5F4F089590958095709561957F4F46
:100EC0008F4F9F4F08950E949807A59F900DB49F44
:100ED000900DA49F800D911D11240895B7FF0C94CF
:100EE00063070E946307821B930B0895A1E21A2EE9
:100EF000AA1BBB1BFD010DC0AA1FBB1FEE1FFF1FBE
:100F0000A217B307E407F50720F0A21BB30BE40B0D
:100F1000F50B661F771F881F991F1A9469F7609554
:100F20007095809590959B01AC01BD01CF0108950E
:100F3000A29FB001B39FC001A39F700D811D11241A
:100F4000911DB29F700D811D1124911D089550585F
:100F5000BB27AA270E94BF070C9439090E942B09BE
:100F600038F00E94320920F039F49F3F19F426F43A
:100F70000C9428090EF4E095E7FB0C942209E92F64
:100F80000E944A0958F3BA17620773078407950746
:100F900020F079F4A6F50C946C090EF4E0950B2E74
:100FA000BA2FA02D0B01B90190010C01CA01A001BB
:100FB0001124FF27591B99F0593F50F4503E68F116
:100FC0001A16F040A22F232F342F4427585FF3CF57
:100FD000469537952795A795F0405395C9F77EF428
:100FE0001F16BA0B620B730B840BBAF09150A1F071
:100FF000FF0FBB1F661F771F881FC2F70EC0BA0FF7
:10100000621F731F841F48F4879577956795B7957E
:10101000F7959E3F08F0B0CF9395880F08F0992779
:10102000EE0F9795879508950E94FE0808F481E0D9
:1010300008950E942D080C9439090E94320958F035
:101040000E942B0940F029F45F3F29F00C942209FB
:1010500051110C946D090C9428090E944A0968F3F7
:101060009923B1F3552391F3951B550BBB27AA2761
:1010700062177307840738F09F5F5F4F220F331F9B
:10108000441FAA1FA9F335D00E2E3AF0E0E832D063
:1010900091505040E695001CCAF72BD0FE2F29D066
:1010A000660F771F881FBB1F261737074807AB0738
:1010B000B0E809F0BB0B802DBF01FF2793585F4FAD
:1010C0003AF09E3F510578F00C9422090C946D097A
:1010D0005F3FE4F3983ED4F3869577956795B7958F
:1010E000F7959F5FC9F7880F911D9695879597F99A
:1010F0000895E1E0660F771F881FBB1F6217730713
:101100008407BA0720F0621B730B840BBA0BEE1F27
:1011100088F7E09508950E9492086894B1110C94A4
:101120006D0908950E94520988F09F5798F0B92FD1
:101130009927B751B0F0E1F0660F771F881F991F0C
:101140001AF0BA95C9F714C0B13091F00E946C0939
:10115000B1E008950C946C09672F782F8827B85F49
:1011600039F0B93FCCF3869577956795B395D9F764
:101170003EF490958095709561957F4F8F4F9F4F6E
:101180000895E89409C097FB3EF49095809570957A
:1011900061957F4F8F4F9F4F9923A9F0F92F96E9C3
:1011A000BB279395F695879577956795B795F11138
:1011B000F8CFFAF4BB0F11F460FF1BC06F5F7F4FD5
:1011C0008F4F9F4F16C0882311F096E911C07723E7
:1011D00021F09EE8872F762F05C0662371F096E8F0
:1011E000862F70E060E02AF09A95660F771F881FBF
:1011F000DAF7880F9695879597F90895990F000863
:10120000550FAA0BE0E8FEEF16161706E807F907D8
:10121000C0F012161306E407F50798F0621B730B73
:10122000840B950B39F40A2661F0232B242B252BF4
:1012300021F408950A2609F4A140A6958FEF811D97
:10124000811D089597F99F6780E870E060E0089538
:101250009FEF80EC089500240A94161617061806CE
:101260000906089500240A941216130614060506AA
:101270000895092E0394000C11F4882352F0BB0F3B
:1012800040F4BF2B11F460FF04C06F5F7F4F8F4F9E
:101290009F4F089557FD9058440F551F59F05F3FD9
:1012A00071F04795880F97FB991F61F09F3F79F088
:1012B00087950895121613061406551FF2CF46950A
:1012C000F1DF08C0161617061806991FF1CF86958C
:1012D0007105610508940895E894BB276627772770
:1012E000CB0197F908950E94FE0808F48FEF089546
:1012F0000E948B090C9439090E942B0938F00E9436
:10130000320920F0952311F00C9422090C9428093D
:1013100011240C946D090E944A0970F3959FC1F342
:10132000950F50E0551F629FF001729FBB27F00D93
:10133000B11D639FAA27F00DB11DAA1F649F6627E8
:10134000B00DA11D661F829F2227B00DA11D621F37
:10135000739FB00DA11D621F839FA00D611D221FF1
:10136000749F3327A00D611D231F849F600D211DD5
:10137000822F762F6A2F11249F5750409AF0F1F058
:1013800088234AF0EE0FFF1FBB1F661F771F881FC1
:1013900091505040A9F79E3F510580F00C942209CE
:1013A0000C946D095F3FE4F3983ED4F386957795EE
:1013B0006795B795F795E7959F5FC1F7FE2B880F67
:1013C000911D9695879597F908950E94FE08880BC0
:1013D000990B0895EE0FFF1F0590F491E02D0994ED
:0413E000F894FFCFAF
:1013E40001000000000000008B01EB001801D8018F
:1013F400490127013B016E616E00696E66006F76DC
:0614040066000D0A000065
:00000001FF
